:020000040000fa
:10000000f0ff0320690500000d0a00000f0a000040
:10001000130a0000150a0000170a00000000000083
:100020000000000000000000000000000b0a0000bb
:10003000110a0000000000000b0a00000b0a00007b
:100040000b0a00000b0a00000b0a00000b0a00005c
:100050000b0a00000b0a00000b0a00000b0a00004c
:100060000b0a00000b0a00000b0a00002509000023
:100070000b0a00000b0a00000b0a00000b0a00002c
:100080000b0a00000b0a00000b0a00000b0a00001c
:100090000b0a00000b0a00000b0a00000b0a00000c
:1000a0000b0a00000b0a00000b0a00000b0a0000fc
:1000b0000b0a00000b0a00000b0a00000b0a0000ec
:1000c0000b0a00000b0a00000b0a00000b0a0000dc
:1000d0000b0a00000b0a00000b0a00000b0a0000cc
:1000e0000b0a00000b0a00000000000000000000e6
:1000f000000000000b0a00000b0a00000b0a0000c1
:100100000b0a00000b0a00000b0a00000b0a00009b
:100110000b0a00000b0a00000b0a00000b0a00008b
:100120000b0a00000b0a00000b0a00000b0a00007b
:100130000b0a00000b0a00000b0a00000b0a00006b
:100140000b0a00000b0a00000b0a00000b0a00005b
:100150000b0a00000b0a0000000000000000000075
:10016000000000000000000000000000000000008f
:100170000000000000000000810200000b0a0000e7
:100180000b0a00000b0a00000b0a00000b0a00001b
:10019000000000000b0a00000b0a00000b0a000020
:1001a0000b0a00000b0a00000b0a00000b0a0000fb
:1001b0000b0a00000b0a00000b0a00000b0a0000eb
:1001c0000b0a00000b0a00000b0a00000b0a0000db
:1001d0000b0a00000b0a00000b0a00000b0a0000cb
:1001e0000b0a00000b0a00000b0a00000b0a0000bb
:1001f0000b0a00000b0a00000b0a00000b0a0000ab
:100200000b0a000000000000000000000b0a0000c4
:100210000b0a00000b0a00000b0a00000b0a00008a
:100220000b0a00000b0a00000b0a00000b0a00007a
:100230000b0a00000b0a00000b0a00000b0a00006a
:100240000b0a00000b0a00000b0a00000b0a00005a
:100250000b0a00000b0a00000b0a00000b0a00004a
:020000040000fa
:10026000f8b500bff8bc08bc9e4670479508000072
:10027000f8b500bff8bc08bc9e4670477108000086
:020000040000fa
:100280002de9f04784b04ff084431c6d14f0007fdb
:100290001cbf4ff000721a6514f0010f62d04ff0ce
:1002a000844301221a655a6d22f001025a65d3f87f
:1002b000a43013f07f0f55d04ff08443d3f8a450ef
:1002c000c5f305252b014a4ad268d718d15811f039
:1002d000804fd15805eb8500464e56f8200014bfdc
:1002e00021f06041c1f38a410160d2587b6813f468
:1002f000001f02d112f0005f71d105eb85033d4a6a
:1003000002eb83031b6900221a707e683a4b0fcb05
:100310000df1100c0ce90f00c6f30346664416f805
:1003200010ac344e4fea850808eb050906eb890945
:10033000524607f10801d9f8040000f019fbd9f87a
:10034000083083f800a0d9f80c300bb17a681a8015
:100350004ff08443c3f8a850284b1b6813b1274ab9
:100360005068984714f4007f20d04ff084434ff436
:1003700000721a655a6d22f400725a65d3f8d820bb
:10038000d3f8e03013f0010f0ad012f0010f07d0bc
:100390004ff08442d2f8e03023f00103c2f8e0309d
:1003a000164b9b6913b1154ad069984714f4006f36
:1003b00012d04ff084424ff400631365d2f8c4307a
:1003c000c3f30423d2f8c420c2f30442934203d2fd
:1003d0000133dbb29a42fbd104b0bde8f08705ebf4
:1003e0008503044a02eb83031b6901221a708ce720
:1003f0001000002038000020d80900006000002014
:020000040000fa
:100400002c4b00221a7403f500632b4ada621a4659
:10041000536813f0200ffbd1284b01225a711a4662
:10042000d37813f0010ffbd0254b264a1a621a46e7
:10043000536813f0040ffbd1214b234a5a621a462a
:10044000536813f0080ffbd11d4b204a9a621a46dd
:10045000536813f0100ffbd1194b1b4a1a631a464d
:10046000536813f0400ffbd1154b4322c3f8a4206f
:100470001a46d2f8a43013f0400ffad0104b4422a1
:10048000c3f8ec201a46d2f8ec3013f0400ffad043
:100490000b4b4422c3f8f0201a46d2f8f03013f088
:1004a000400ffad0054b0a4a1a6144f2ff725a61b2
:1004b000704700bf00140040040120000008004005
:1004c000001c004006010100060102000601300088
:0404d000fffffb002f
:020000040000fa
:1004d40010b4214b214a1a60402183f843100622ac
:1004e40083f8442083f8452083f84b1083f84d208b
:1004f40083f84e1083f84f2083f8531083f8542068
:1005040083f85520012083f8560083f8570083f8b8
:100514005b20882483f83b40114cc3f8804083f867
:10052400c02083f8c12083f8c22083f8c32083f855
:10053400c41083f8cc0083f8cd0083f8ce2083f870
:10054400d71083f8df00772283f8b62083f8bf1032
:100554005df8044b704700bf008000410448080068
:04056400300880805b
:020000040000fa
:1005680008b51b4b98471b4b9847eff3108172b6a1
:10057800194ad2f8883043f47003c2f88830bff3c0
:100588004f8fbff36f8f01b962b6144c202363609d
:1005980000f0b8f8124b23f07f030f4a9360114b19
:1005a8009847a36823f00103a3602346da6812f092
:1005b800010ffbd1094b5a6842f004025a6001222c
:1005c8009a60094b9847094b984700f0e8f9fee70d
:1005d800190a0000190a000000ed00e0006000415f
:1005e80000000000e5070000190a0000190a0000d1
:020000040000fa
:1005f8004ff000531a6803f1415303f5042303f243
:100608004d339a4228d11a4b1a6803f1415303f526
:10061800042303f249339a421ed1164b1a6803f198
:10062800415303f5042303f245339a4214d1124b84
:100638001a6803f1415303f5042303f241339a4244
:100648000ad100204ff000531860043318600433b7
:10065800186004331860704700234ff0005213608d
:1006680004321360043213600432136001207047af
:0c06780004000020080000200c000020fe
:020000040000fa
:1006840038b54ff0844301229a611a46936913f0f6
:10069400010ffbd04ff084439a6942f002029a6141
:1006a400164ada612b22c3f8802001221a629a6961
:1006b40022f4804222f0010242f480429a611a46f6
:1006c400936913f0010ffbd14ff0844300249c6520
:1006d4000122da654ff000725a65094d2c606c6096
:1006e400ac6028222146074800f084f9ec602c61b4
:1006f4006c61ac61ec612c626c6238bd0005020077
:08070400100000203800002065
:020000040000fa
:10070c001e4b1f4a9342f0b438bf002103d203f8aa
:10071c00011b9342fbd11b4ad2e9000150ea0103b1
:10072c004ff0000610d09468034602f10c076cb928
:10073c0021b1014403f8016b9942fbd13a46d2e94d
:10074c00000150ea0103eed1f0bc704759b101f140
:10075c000c030c38801a1a443b461c1813f8015b26
:10076c0025709342f9d111f0030318bf012303eb59
:10077c00910107eb81073a46e1e700bf100000202a
:08078c0010000020940700009a
:020000040000fa
:10079400800000201c000000000000006000002019
:1007a40020000000000000001000002028000000cd
:1007b40000000000380000202800000000000000b5
:1007c4009c0000200c00000000000000a800002095
:1007d4000400000000000000000000000000000011
:020000040000fa
:1007e40070b50d4d0d4c641ba4100026a64209d112
:1007f4000b4d0c4cfff732fd641ba4100026a642df
:1008040005d170bd55f8043b98470136eee755f81d
:10081400043b98470136f2e76c0200006c020000ca
:080824006c02000070020000ec
:020000040000fa
:10082c000f4b01221a801a46136913f0010ffbd1ea
:10083c000b4b4ff401421a8000221a621a461369bc
:10084c0013f0200ffbd1064b00225a621a46136993
:10085c0013f0400ffbd1024b83225a81704700bf2b
:04086c000024004024
:020000040000fa
:1008700010b5054c237833b9044b13b10448aff3da
:1008800000800123237010bd8000002000000000c4
:100890000000000008b5034b1bb103490348aff348
:1008a000008008bd0000000084000020000000005f
:020000040000fa
:1008b0000d4ad36823f4e0631b041b0c43f0bf63b1
:1008c00043f40033d360bff35f8f62b6074be0227f
:1008d00083f80b234ff40061196083f84e234ff423
:1008e00080429a60704700bf00ed00e000e100e048
:020000040000fa
:1008f0000b4b01221a601a46136913f0010ffbd14a
:10090000074b4ff4c2621a6001221a7302229a83c3
:1009100033229a721a461369002bfcd1704700bf2c
:04092000003800405b
:020000040000fa
:1009240008b5074a908980b2064b58604cf2ff31f3
:1009340091811b6813b1034a9168984708bd00bfb1
:08094400002400409c0000208b
:020000040000fa
:10094c0008b500f04bf8fff7bffdfff753fd00f0c3
:10095c0055f8fff791fefff763fffff7c3fffff7b3
:04096c00a1ff08bd22
:020000040000fa
:100970000a44914200f1ff3300d1704710b511f8dd
:0c098000014b03f8014f9142f9d110bd6a
:020000040000fa
:10098c004ff400531b6842f204021268b3f1ff3fac
:0a099c0002d083f30888104770476b
:020000040000fa
:1009a60008b50020fff7cfff00f007f8fff721fe9c
:0a09b60000b9fee7fff7e7fffbe7db
:020000040000fa
:1009c000044a136843f002031360136913f0020f23
:0809d000fbd170470038004024
:020000040000fa
:1009d8000001020304050607080c10141820304013
:020000040000fa
:1009e800024b4ff482721a80704700bf00400041ea
:020000040000fa
:1009f80002440346934200d1704703f8011bf9e70c
:020000040000fa
:020a0800704735
:020000040000fa
:020a0a00fee705
:020000040000fa
:020a0c00fee703
:020000040000fa
:020a0e00fee701
:020000040000fa
:020a1000fee7ff
:020000040000fa
:020a1200fee7fd
:020000040000fa
:020a1400fee7fb
:020000040000fa
:020a1600fee7f9
:020000040000fa
:020a1800704725
:020000040000fa
:0200000400807a
:044000003912003c35
:020000040000fa
:0200000400807a
:044004009100a82a55
:020000040000fa
:0200000400807a
:04400800ffffffffb8
:00000001FF
