:020000040000fa
:08000000ffff032009000000ce
:020000040000fa
:10000800134a14498a420cd20139891a21f0030192
:10001800114b0431194453f8040b42f8040b8b427a
:10002800f9d10e4b0e4a93420ad2013ad21a22f063
:10003800030204321a44002143f8041b9342fbd103
:10004800084b094a23f07f03936000f011b800bf02
:1000580018000020b408002080000000c00800201c
:10006800b40c00201000002000ed00e000000000ab
:080078005ff800f069080020a8
:020000040000fa
:100080004ff0844301229a619a69d207fcd59a699c
:100090000d4842f0020228219a61d861c3f880100d
:1000a0009a6922f001029a614ff08442936913f039
:1000b0000103fbd10549c1e90333c1e90533c1e9b6
:1000c00007334b62704700bf01040002c0080020e4
:1000d000f8b59df81870012f01d90020f8bd4ff038
:1000e0008443d3f8c440a402f7d4d3f8c4401e4ece
:1000f000b0f5006fd6f818e028bf20f06040c4f3d8
:1001000004444fea041c2cbf40f0804080040829be
:100110000b460eeb0c0528bf082319044ef80c0003
:100120006960cfb15ef80c3043f000534ef80c30ec
:1001300096f828306a680133dbb286f8283042ea44
:10014000036201204ff0844342f4000200fa04f4f9
:100150006a60c3f8d040f8bd114605f108001a46a0
:1001600000f0befbe4e700bfc0080020f0b585b09a
:100170009df82840002c40d14ff08445d5f8a4309c
:1001800013f07f033cd0d5f8a4701f4dc7f30527ab
:1001900007ebc703ee68db0006eb030ef55815f01e
:1001a000804ff55814bf25f06045c5f38a450560ba
:1001b000f058def80430def804c09b021646134bfc
:1001c0000b9a58bfc0f340740d4614700fcb04acab
:1001d00004e90f00ccf3034ca44430461cf8104c47
:1001e0000ef10801224600f07bfb4ff08443012012
:1001f0002c70c3f8a87005b0f0bd002005b0f0bdac
:10020000184605b0f0bd00bfc0080020a4080020bb
:100210004ff0844344f2e771586c9a690840d10763
:100220000ad59a6942f002029a619a6922f00102a3
:100230009a619a69d207fcd4704700bf4ff084439b
:100240001b6d034214bf0120002070474ff0844310
:1002500018657047f8b54ff4c2720021044600f0eb
:100260004dfb4ff0844301229a619a69d207fcd575
:100270009869184e1849a2b242f0004204f5b475cc
:1002800040f0020042f4a0229861c3f8a020aab274
:1002900004f5bc7042f08072c3f8c02082b204f54d
:1002a000c07742f48032c3f8f020bab242f4803210
:1002b000c4f88061c3f884209a698d6122f001023c
:1002c000cc60c1e907079a614ff084429369db076c
:1002d000fcd4f8bd05010009c008002001280ad897
:1002e00049b1064b09681a6a00f18043013b0120bd
:1002f00042f8231070470020704700bfc00800205c
:100300002749284b284a0020087419469a624b68ee
:10031000da06fcd4254b234acb6253689b06fcd4f7
:1003200042232049c2f88430d1f884305806fbd5e6
:100330001f4b002277219a631a465963d36b5907e2
:10034000fcd402231a4982f83030cb6b9b07fcd4d3
:10035000174a136c03f00303032bfad1154a012348
:100360005371d378d807fcd50e4a134b13625368e8
:100370005907fcd4114b0b4953624b681a07fcd444
:100380004323084ac1f8ec30d2f8ec305b06fbd5c9
:10039000084b6ff07f4140f2ff7219615a6170475c
:1003a00000140040001c0040060130000601060059
:1003b0000010004000080040070101000701020092
:1003c00009b900207047002bfbd010b40c4c6060c2
:1003d000a160e26062780420d2b26270214620708f
:1003e0004a78d007fcd54a78520703d500205df83b
:1003f000044b7047ca681a6001205df8044b7047cf
:1004000000200041704700bf064ad3684ff6ff0145
:100410000b4043f0bf6343f40033d360bff35f8fff
:1004200062b6704700ed00e0024b40f204521a80c1
:10043000704700bf004000410c4a30b4091a002543
:10044000031f0c1d00f5fe701580e21853f8041f01
:1004500011608342f9d1064a138803f0300313b9bf
:100460004af203539380012030bc7047ea08002011
:100470000040004110b4064b064c01464af20152be
:1004800000202080012059619a805df8044b70475c
:1004900000400041ea080020024b588ac04300f0a7
:1004a0000100704700400041024b4af2125258616d
:1004b0009a80704700400041704700bf80b24ff003
:1004c000804340ea01411960704700bf064b01229a
:1004d0004020882183f84e0083f8562083f8572067
:1004e00083f83b10704700bf0080004108b5fff75c
:1004f0009bfffff7ebff00f0d7f958b1fff700ffc4
:10050000fff780fffff7d8fffff7bafdbde808400f
:10051000fff77abf00f0bcf9f0e700bf00b5144c5c
:1005200083b000234ff400602370fff787fec8b943
:100530000023e06800930e4a0121fff7c9fd4ff444
:100540000060fff77bfe0028f9d0bff34f8f094909
:10055000094bca6802f4e0621343cb60bff34f8fcc
:1005600000bffde74ff40060fff770fee0e700bf5b
:10057000f008002000ed00e00400fa052de9f04f3e
:100580001d4cd4e907b185b0a1eb0b052120012159
:100590000027267c94f811a094f8129094f8138008
:1005a0000397fff78bff03ab4ff0ff322946584606
:1005b000fff706ff02212120fff780ff94f8243087
:1005c000039a042b0bd0042323700023e0680093cc
:1005d000094a0121fff77cfd05b0bde8f08f06eb6d
:1005e0000a2606eb094606eb086696421abf052363
:1005f00023702770e9e700bff0080020f0b5414cf8
:1006000094f82530227c9a4283b064d194f8242057
:10061000012a31d9a36a002b68d00125002604f1f4
:10062000300708e0013594f82430edb2ab4221d90f
:10063000a36a002b5ad0e36a6219e1180133127cd5
:10064000e362b3f5007f81f83020ebd1d4f83012ab
:10065000b1f5085f20d2a36ae662a3f50073a36236
:10066000013594f82430edb201f50071ab42c4f8c5
:100670003012ddd894f82530e068224a0133002595
:10068000d9b284f82510617000952b46022125709f
:10069000fff71efd03b0f0bdc1f30c034bb13846ac
:1006a000fff7cafefff7f8fe0028fbd1d4f830129e
:1006b000d1e70846fff7f8fefff7eefe0028fbd172
:1006c000d4f83002fff7d6fefff7e6fe0028fbd194
:1006d000d4f83012e3e70023022121700093224670
:1006e000e0680121fff7f4fc03b0f0bd0023032113
:1006f00021700093e068034a0121fff7e9fc03b091
:10070000f0bd00bff008002070b51d4c607c617d1d
:10071000227c237da67ca57d02eb002203eb012336
:10072000e07ce17d02eb064203eb054302eb006255
:1007300003eb01639a4282b0c4e9072302d2b3f506
:10074000801f15d90023c4e90733237000252b46e9
:1007500000950b4ae0680121fff7bafcd4e90723b2
:1007600084f82550e562c4f83022a36202b070bd5f
:1007700094f82430082be5d100232370e6e700bf6e
:10078000f00800200d4a08b5d368d2f834229b1a2d
:10079000032b11d8dfe803f00a06020ebde808407b
:1007a000fff7ecbebde80840fff728bfbde80840f2
:1007b000fff7aabffff7b2fe08bd00bff008002098
:1007c00010b584b0002301208df80f30fff736fdff
:1007d00008b904b010bd0120fff738fdfff718fd80
:1007e00010f0070001d00728f3d1084a0df10f04db
:1007f000002302f11401101fcde90034fff7b6fc0d
:100800000028e6d0fff7beffe3e700bf00090020a5
:1008100000b51b4883b0fff71dfd1a4b1b681a6813
:10082000202a01d81a683abb4ff48073164a174839
:10083000d91cc1f30a0102ea03420a434ff084447f
:1008400042f0006201210192c0f83432a161a36933
:10085000d907fcd501a90020fff740fda36923f0cb
:100860000103a3614ff084439a69d207fcd4fff7d8
:10087000a7fffff7a5fffae71b6840339b00d5e70a
:10088000300b0020b40800200000ff07f008002013
:100890004ff4085342f204221b681268591c02d01c
:1008a00083f3088810477047074b08495b681a684c
:1008b0008a4201d00020704759689142fad1002243
:1008c000c3e9002201207047b40800204d4348507e
:1008d00008b50020fff70afefff79aff012008bdc8
:1008e0000a44914200f1ff3300d1704710b511f86e
:1008f000014b03f8014f9142f9d110bd0244034668
:10090000934200d1704703f8011bf9e7000102038d
:0c09100004050607080c101418203040e5
:020000040000fa
:0200000400807a
:044000003912003c35
:020000040000fa
:0200000400807a
:044004008000a82a66
:020000040000fa
:0200000400807a
:04400800ffffffffb8
:020000040000fa
:020000042000da
:0808b4000020000000000020fc
:00000001FF
